{
  "contractName": "Marketplace",
  "abi": [
    {
      "inputs": [],
      "payable": false,
      "stateMutability": "nonpayable",
      "type": "constructor"
    },
    {
      "anonymous": false,
      "inputs": [
        {
          "indexed": false,
          "internalType": "uint256",
          "name": "id",
          "type": "uint256"
        },
        {
          "indexed": false,
          "internalType": "string",
          "name": "name",
          "type": "string"
        },
        {
          "indexed": false,
          "internalType": "uint256",
          "name": "price",
          "type": "uint256"
        },
        {
          "indexed": false,
          "internalType": "uint256",
          "name": "quantity",
          "type": "uint256"
        },
        {
          "indexed": false,
          "internalType": "address payable",
          "name": "owner",
          "type": "address"
        },
        {
          "indexed": false,
          "internalType": "bool",
          "name": "purchased",
          "type": "bool"
        }
      ],
      "name": "ProductCreated",
      "type": "event"
    },
    {
      "anonymous": false,
      "inputs": [
        {
          "indexed": false,
          "internalType": "uint256",
          "name": "id",
          "type": "uint256"
        },
        {
          "indexed": false,
          "internalType": "string",
          "name": "name",
          "type": "string"
        },
        {
          "indexed": false,
          "internalType": "uint256",
          "name": "price",
          "type": "uint256"
        },
        {
          "indexed": false,
          "internalType": "uint256",
          "name": "quantity",
          "type": "uint256"
        },
        {
          "indexed": false,
          "internalType": "address payable",
          "name": "owner",
          "type": "address"
        },
        {
          "indexed": false,
          "internalType": "bool",
          "name": "purchased",
          "type": "bool"
        }
      ],
      "name": "ProductPurchased",
      "type": "event"
    },
    {
      "constant": true,
      "inputs": [],
      "name": "name",
      "outputs": [
        {
          "internalType": "string",
          "name": "",
          "type": "string"
        }
      ],
      "payable": false,
      "stateMutability": "view",
      "type": "function"
    },
    {
      "constant": true,
      "inputs": [],
      "name": "productCount",
      "outputs": [
        {
          "internalType": "uint256",
          "name": "",
          "type": "uint256"
        }
      ],
      "payable": false,
      "stateMutability": "view",
      "type": "function"
    },
    {
      "constant": true,
      "inputs": [
        {
          "internalType": "uint256",
          "name": "",
          "type": "uint256"
        }
      ],
      "name": "products",
      "outputs": [
        {
          "internalType": "uint256",
          "name": "id",
          "type": "uint256"
        },
        {
          "internalType": "string",
          "name": "name",
          "type": "string"
        },
        {
          "internalType": "uint256",
          "name": "price",
          "type": "uint256"
        },
        {
          "internalType": "uint256",
          "name": "quantity",
          "type": "uint256"
        },
        {
          "internalType": "address payable",
          "name": "owner",
          "type": "address"
        },
        {
          "internalType": "bool",
          "name": "purchased",
          "type": "bool"
        }
      ],
      "payable": false,
      "stateMutability": "view",
      "type": "function"
    },
    {
      "constant": false,
      "inputs": [
        {
          "internalType": "string",
          "name": "_name",
          "type": "string"
        },
        {
          "internalType": "uint256",
          "name": "_price",
          "type": "uint256"
        },
        {
          "internalType": "uint256",
          "name": "_quantity",
          "type": "uint256"
        }
      ],
      "name": "createProduct",
      "outputs": [],
      "payable": false,
      "stateMutability": "nonpayable",
      "type": "function"
    },
    {
      "constant": false,
      "inputs": [
        {
          "internalType": "uint256",
          "name": "_id",
          "type": "uint256"
        }
      ],
      "name": "purchaseProduct",
      "outputs": [],
      "payable": true,
      "stateMutability": "payable",
      "type": "function"
    }
  ],
  "bytecode": "0x6080604052600060015534801561001557600080fd5b506040518060400160405280601b81526020017f4461707020556e6976657273697479204d61726b6574706c616365000000000081525060009080519060200190610061929190610067565b5061010c565b828054600181600116156101000203166002900490600052602060002090601f016020900481019282601f106100a857805160ff19168380011785556100d6565b828001600101855582156100d6579182015b828111156100d55782518255916020019190600101906100ba565b5b5090506100e391906100e7565b5090565b61010991905b808211156101055760008160009055506001016100ed565b5090565b90565b610c608061011b6000396000f3fe60806040526004361061004a5760003560e01c806306fdde031461004f57806338e76a03146100df5780637acc0b201461010d5780637bf12b1c14610214578063e0f6ef87146102f0575b600080fd5b34801561005b57600080fd5b5061006461031b565b6040518080602001828103825283818151815260200191508051906020019080838360005b838110156100a4578082015181840152602081019050610089565b50505050905090810190601f1680156100d15780820380516001836020036101000a031916815260200191505b509250505060405180910390f35b61010b600480360360208110156100f557600080fd5b81019080803590602001909291905050506103b9565b005b34801561011957600080fd5b506101466004803603602081101561013057600080fd5b81019080803590602001909291905050506107f9565b60405180878152602001806020018681526020018581526020018473ffffffffffffffffffffffffffffffffffffffff1673ffffffffffffffffffffffffffffffffffffffff16815260200183151515158152602001828103825287818151815260200191508051906020019080838360005b838110156101d45780820151818401526020810190506101b9565b50505050905090810190601f1680156102015780820380516001836020036101000a031916815260200191505b5097505050505050505060405180910390f35b34801561022057600080fd5b506102ee6004803603606081101561023757600080fd5b810190808035906020019064010000000081111561025457600080fd5b82018360208201111561026657600080fd5b8035906020019184600183028401116401000000008311171561028857600080fd5b91908080601f016020809104026020016040519081016040528093929190818152602001838380828437600081840152601f19601f82011690508083019250505050505050919291929080359060200190929190803590602001909291905050506108fa565b005b3480156102fc57600080fd5b50610305610b32565b6040518082815260200191505060405180910390f35b60008054600181600116156101000203166002900480601f0160208091040260200160405190810160405280929190818152602001828054600181600116156101000203166002900480156103b15780601f10610386576101008083540402835291602001916103b1565b820191906000526020600020905b81548152906001019060200180831161039457829003601f168201915b505050505081565b6103c1610b38565b600260008381526020019081526020016000206040518060c001604052908160008201548152602001600182018054600181600116156101000203166002900480601f0160208091040260200160405190810160405280929190818152602001828054600181600116156101000203166002900480156104825780601f1061045757610100808354040283529160200191610482565b820191906000526020600020905b81548152906001019060200180831161046557829003601f168201915b5050505050815260200160028201548152602001600382015481526020016004820160009054906101000a900473ffffffffffffffffffffffffffffffffffffffff1673ffffffffffffffffffffffffffffffffffffffff1673ffffffffffffffffffffffffffffffffffffffff1681526020016004820160149054906101000a900460ff1615151515815250509050600081608001519050600082600001511180156105355750600154826000015111155b61053e57600080fd5b816040015134101561054f57600080fd5b816060015134101561056057600080fd5b8160a001511561056f57600080fd5b3373ffffffffffffffffffffffffffffffffffffffff168173ffffffffffffffffffffffffffffffffffffffff1614156105a857600080fd5b33826080019073ffffffffffffffffffffffffffffffffffffffff16908173ffffffffffffffffffffffffffffffffffffffff168152505060018260a0019015159081151581525050816002600085815260200190815260200160002060008201518160000155602082015181600101908051906020019061062b929190610b86565b50604082015181600201556060820151816003015560808201518160040160006101000a81548173ffffffffffffffffffffffffffffffffffffffff021916908373ffffffffffffffffffffffffffffffffffffffff16021790555060a08201518160040160146101000a81548160ff0219169083151502179055509050508073ffffffffffffffffffffffffffffffffffffffff166108fc349081150290604051600060405180830381858888f193505050501580156106f0573d6000803e3d6000fd5b507f7306239bc3c811209bd2853b5f220d1144dbc4bdaef999c24c8982af3516cd7960015483602001518460400151856060015133600160405180878152602001806020018681526020018581526020018473ffffffffffffffffffffffffffffffffffffffff1673ffffffffffffffffffffffffffffffffffffffff16815260200183151515158152602001828103825287818151815260200191508051906020019080838360005b838110156107b557808201518184015260208101905061079a565b50505050905090810190601f1680156107e25780820380516001836020036101000a031916815260200191505b5097505050505050505060405180910390a1505050565b6002602052806000526040600020600091509050806000015490806001018054600181600116156101000203166002900480601f0160208091040260200160405190810160405280929190818152602001828054600181600116156101000203166002900480156108ab5780601f10610880576101008083540402835291602001916108ab565b820191906000526020600020905b81548152906001019060200180831161088e57829003601f168201915b5050505050908060020154908060030154908060040160009054906101000a900473ffffffffffffffffffffffffffffffffffffffff16908060040160149054906101000a900460ff16905086565b600083511161090857600080fd5b6000821161091557600080fd5b6000811161092257600080fd5b6001600081548092919060010191905055506040518060c0016040528060015481526020018481526020018381526020018281526020013373ffffffffffffffffffffffffffffffffffffffff168152602001600015158152506002600060015481526020019081526020016000206000820151816000015560208201518160010190805190602001906109b7929190610b86565b50604082015181600201556060820151816003015560808201518160040160006101000a81548173ffffffffffffffffffffffffffffffffffffffff021916908373ffffffffffffffffffffffffffffffffffffffff16021790555060a08201518160040160146101000a81548160ff0219169083151502179055509050507f84a86ace0fd8dc64683a8ea9bbee0091c62410a7cdb1c3d84e2a7bc5c420dc7a60015484848433600060405180878152602001806020018681526020018581526020018473ffffffffffffffffffffffffffffffffffffffff1673ffffffffffffffffffffffffffffffffffffffff16815260200183151515158152602001828103825287818151815260200191508051906020019080838360005b83811015610aee578082015181840152602081019050610ad3565b50505050905090810190601f168015610b1b5780820380516001836020036101000a031916815260200191505b5097505050505050505060405180910390a1505050565b60015481565b6040518060c0016040528060008152602001606081526020016000815260200160008152602001600073ffffffffffffffffffffffffffffffffffffffff1681526020016000151581525090565b828054600181600116156101000203166002900490600052602060002090601f016020900481019282601f10610bc757805160ff1916838001178555610bf5565b82800160010185558215610bf5579182015b82811115610bf4578251825591602001919060010190610bd9565b5b509050610c029190610c06565b5090565b610c2891905b80821115610c24576000816000905550600101610c0c565b5090565b9056fea265627a7a72315820fd8ad916ceb4ad1a94693b5ff18c630ed98a7ec2c15a5e81a444b5357226e61464736f6c63430005100032",
  "source": "pragma solidity ^0.5.0;\r\n\r\ncontract Marketplace {\r\n    string public name;\r\n    uint public productCount = 0;\r\n    mapping(uint => Product) public products;\r\n\r\n    struct Product {\r\n        uint id;\r\n        string name;\r\n        uint price;\r\n        uint quantity;\r\n        address payable owner;\r\n        bool purchased;\r\n    }\r\n\r\n    event ProductCreated(\r\n        uint id,\r\n        string name,\r\n        uint price,\r\n        uint quantity,\r\n        address payable owner,\r\n        bool purchased\r\n    );\r\n\r\n    event ProductPurchased(\r\n        uint id,\r\n        string name,\r\n        uint price,\r\n        uint quantity,\r\n        address payable owner,\r\n        bool purchased\r\n    );\r\n\r\n    constructor() public {\r\n        name = \"Dapp University Marketplace\";\r\n    }\r\n\r\n    function createProduct(string memory _name, uint _price, uint _quantity) public {\r\n        // Require a valid name\r\n        require(bytes(_name).length > 0);\r\n        // Require a valid price\r\n        require(_price > 0);\r\n         // Require a valid price\r\n        require(_quantity > 0);\r\n        // Increment product count\r\n        productCount ++;\r\n        // Create the product\r\n        products[productCount] = Product(productCount, _name, _price, _quantity, msg.sender, false);\r\n        // Trigger an event\r\n        emit ProductCreated(productCount, _name, _price, _quantity, msg.sender, false);\r\n    }\r\n\r\n    function purchaseProduct(uint _id) public payable {\r\n        // Fetch the product\r\n        Product memory _product = products[_id];\r\n        // Fetch the owner\r\n        address payable _seller = _product.owner;\r\n        // Make sure the product has a valid id\r\n        require(_product.id > 0 && _product.id <= productCount);\r\n        // Require that there is enough Ether in the transaction\r\n        require(msg.value >= _product.price);\r\n        // Require that there is enough Ether in the transaction\r\n        require(msg.value >= _product.quantity);\r\n        // Require that the product has not been purchased already\r\n        require(!_product.purchased);\r\n        // Require that the buyer is not the seller\r\n        require(_seller != msg.sender);\r\n        // Transfer ownership to the buyer\r\n        _product.owner = msg.sender;\r\n        // Mark as purchased\r\n        _product.purchased = true;\r\n        // Update the product\r\n        products[_id] = _product;\r\n        // Pay the seller by sending them Ether\r\n        address(_seller).transfer(msg.value);\r\n        // Trigger an event\r\n        emit ProductPurchased(productCount, _product.name, _product.price, _product.quantity, msg.sender, true);\r\n    }\r\n}\r\n",
  "sourcePath": "C:\\xampp\\htdocs\\fundom-v0.0.1\\src\\contracts\\Marketplace.sol",
  "compiler": {
    "name": "solc",
    "version": "0.5.16+commit.9c3226ce.Emscripten.clang"
  },
  "schemaVersion": "3.4.2",
  "updatedAt": "2021-08-06T14:14:15.674Z",
  "networkType": "ethereum",
  "devdoc": {
    "methods": {}
  },
  "userdoc": {
    "methods": {}
  }
}